{
  "contractName": "EventContract",
  "abi": [
    {
      "inputs": [],
      "stateMutability": "nonpayable",
      "type": "constructor"
    },
    {
      "inputs": [
        {
          "internalType": "string",
          "name": "uri",
          "type": "string"
        },
        {
          "internalType": "string",
          "name": "name",
          "type": "string"
        },
        {
          "internalType": "uint256",
          "name": "tickets",
          "type": "uint256"
        }
      ],
      "name": "createEvent",
      "outputs": [
        {
          "internalType": "uint256",
          "name": "",
          "type": "uint256"
        }
      ],
      "stateMutability": "payable",
      "type": "function",
      "payable": true
    },
    {
      "inputs": [
        {
          "internalType": "uint256",
          "name": "eventID",
          "type": "uint256"
        }
      ],
      "name": "buyTickets",
      "outputs": [],
      "stateMutability": "payable",
      "type": "function",
      "payable": true
    },
    {
      "inputs": [],
      "name": "getOwnedEvents",
      "outputs": [
        {
          "internalType": "uint256[]",
          "name": "",
          "type": "uint256[]"
        }
      ],
      "stateMutability": "view",
      "type": "function",
      "constant": true
    },
    {
      "inputs": [],
      "name": "getTicketContract",
      "outputs": [
        {
          "internalType": "contract TicketContract",
          "name": "",
          "type": "address"
        }
      ],
      "stateMutability": "view",
      "type": "function",
      "constant": true
    },
    {
      "inputs": [
        {
          "internalType": "uint256",
          "name": "eventID",
          "type": "uint256"
        }
      ],
      "name": "getEventDetails",
      "outputs": [
        {
          "internalType": "uint256",
          "name": "",
          "type": "uint256"
        },
        {
          "internalType": "string",
          "name": "",
          "type": "string"
        },
        {
          "internalType": "string",
          "name": "",
          "type": "string"
        },
        {
          "internalType": "address",
          "name": "",
          "type": "address"
        }
      ],
      "stateMutability": "view",
      "type": "function",
      "constant": true
    }
  ],
  "bytecode": "0x608060405234801561001057600080fd5b50600060018190555060405161002590610086565b604051809103906000f080158015610041573d6000803e3d6000fd5b506000806101000a81548173ffffffffffffffffffffffffffffffffffffffff021916908373ffffffffffffffffffffffffffffffffffffffff160217905550610093565b61056c80610eac83390190565b610e0a806100a26000396000f3fe60806040526004361061004a5760003560e01c80632f3666371461004f5780634bda2de31461006b5780635555fe1714610096578063cd017bd0146100c6578063ec38d5a0146100f1575b600080fd5b6100696004803603810190610064919061076f565b610131565b005b34801561007757600080fd5b50610080610242565b60405161008d919061085a565b60405180910390f35b6100b060048036038101906100ab91906109c2565b6102d7565b6040516100bd9190610a5c565b60405180910390f35b3480156100d257600080fd5b506100db610475565b6040516100e89190610af6565b60405180910390f35b3480156100fd57600080fd5b506101186004803603810190610113919061076f565b61049e565b6040516101289493929190610bba565b60405180910390f35b806000600460008381526020019081526020016000205411610188576040517f08c379a000000000000000000000000000000000000000000000000000000000815260040161017f90610c59565b60405180910390fd5b60008054906101000a900473ffffffffffffffffffffffffffffffffffffffff1673ffffffffffffffffffffffffffffffffffffffff16632aa1e20f83336040518363ffffffff1660e01b81526004016101e3929190610c79565b600060405180830381600087803b1580156101fd57600080fd5b505af1158015610211573d6000803e3d6000fd5b5050505060046000838152602001908152602001600020600081548092919061023990610cd1565b91905055505050565b6060600360003373ffffffffffffffffffffffffffffffffffffffff1673ffffffffffffffffffffffffffffffffffffffff1681526020019081526020016000208054806020026020016040519081016040528092919081815260200182805480156102cd57602002820191906000526020600020905b8154815260200190600101908083116102b9575b5050505050905090565b6000806001549050600160008154809291906102f290610cfb565b9190505550600060405180608001604052808381526020018681526020018781526020013373ffffffffffffffffffffffffffffffffffffffff1681525090506002819080600181540180825580915050600190039060005260206000209060040201600090919091909150600082015181600001556020820151816001019080519060200190610384929190610682565b5060408201518160020190805190602001906103a1929190610682565b5060608201518160030160006101000a81548173ffffffffffffffffffffffffffffffffffffffff021916908373ffffffffffffffffffffffffffffffffffffffff1602179055505050836004600084815260200190815260200160002081905550600360003373ffffffffffffffffffffffffffffffffffffffff1673ffffffffffffffffffffffffffffffffffffffff16815260200190815260200160002082908060018154018082558091505060019003906000526020600020016000909190919091505581925050509392505050565b60008060009054906101000a900473ffffffffffffffffffffffffffffffffffffffff16905090565b60006060806000600285815481106104b9576104b8610d44565b5b906000526020600020906004020160000154600286815481106104df576104de610d44565b5b90600052602060002090600402016001016002878154811061050457610503610d44565b5b90600052602060002090600402016002016002888154811061052957610528610d44565b5b906000526020600020906004020160030160009054906101000a900473ffffffffffffffffffffffffffffffffffffffff1682805461056790610da2565b80601f016020809104026020016040519081016040528092919081815260200182805461059390610da2565b80156105e05780601f106105b5576101008083540402835291602001916105e0565b820191906000526020600020905b8154815290600101906020018083116105c357829003601f168201915b505050505092508180546105f390610da2565b80601f016020809104026020016040519081016040528092919081815260200182805461061f90610da2565b801561066c5780601f106106415761010080835404028352916020019161066c565b820191906000526020600020905b81548152906001019060200180831161064f57829003601f168201915b5050505050915093509350935093509193509193565b82805461068e90610da2565b90600052602060002090601f0160209004810192826106b057600085556106f7565b82601f106106c957805160ff19168380011785556106f7565b828001600101855582156106f7579182015b828111156106f65782518255916020019190600101906106db565b5b5090506107049190610708565b5090565b5b80821115610721576000816000905550600101610709565b5090565b6000604051905090565b600080fd5b600080fd5b6000819050919050565b61074c81610739565b811461075757600080fd5b50565b60008135905061076981610743565b92915050565b6000602082840312156107855761078461072f565b5b60006107938482850161075a565b91505092915050565b600081519050919050565b600082825260208201905092915050565b6000819050602082019050919050565b6107d181610739565b82525050565b60006107e383836107c8565b60208301905092915050565b6000602082019050919050565b60006108078261079c565b61081181856107a7565b935061081c836107b8565b8060005b8381101561084d57815161083488826107d7565b975061083f836107ef565b925050600181019050610820565b5085935050505092915050565b6000602082019050818103600083015261087481846107fc565b905092915050565b600080fd5b600080fd5b6000601f19601f8301169050919050565b7f4e487b7100000000000000000000000000000000000000000000000000000000600052604160045260246000fd5b6108cf82610886565b810181811067ffffffffffffffff821117156108ee576108ed610897565b5b80604052505050565b6000610901610725565b905061090d82826108c6565b919050565b600067ffffffffffffffff82111561092d5761092c610897565b5b61093682610886565b9050602081019050919050565b82818337600083830152505050565b600061096561096084610912565b6108f7565b90508281526020810184848401111561098157610980610881565b5b61098c848285610943565b509392505050565b600082601f8301126109a9576109a861087c565b5b81356109b9848260208601610952565b91505092915050565b6000806000606084860312156109db576109da61072f565b5b600084013567ffffffffffffffff8111156109f9576109f8610734565b5b610a0586828701610994565b935050602084013567ffffffffffffffff811115610a2657610a25610734565b5b610a3286828701610994565b9250506040610a438682870161075a565b9150509250925092565b610a5681610739565b82525050565b6000602082019050610a716000830184610a4d565b92915050565b600073ffffffffffffffffffffffffffffffffffffffff82169050919050565b6000819050919050565b6000610abc610ab7610ab284610a77565b610a97565b610a77565b9050919050565b6000610ace82610aa1565b9050919050565b6000610ae082610ac3565b9050919050565b610af081610ad5565b82525050565b6000602082019050610b0b6000830184610ae7565b92915050565b600081519050919050565b600082825260208201905092915050565b60005b83811015610b4b578082015181840152602081019050610b30565b83811115610b5a576000848401525b50505050565b6000610b6b82610b11565b610b758185610b1c565b9350610b85818560208601610b2d565b610b8e81610886565b840191505092915050565b6000610ba482610a77565b9050919050565b610bb481610b99565b82525050565b6000608082019050610bcf6000830187610a4d565b8181036020830152610be18186610b60565b90508181036040830152610bf58185610b60565b9050610c046060830184610bab565b95945050505050565b7f4e6f205469636b65747320417661696c61626c65000000000000000000000000600082015250565b6000610c43601483610b1c565b9150610c4e82610c0d565b602082019050919050565b60006020820190508181036000830152610c7281610c36565b9050919050565b6000604082019050610c8e6000830185610a4d565b610c9b6020830184610bab565b9392505050565b7f4e487b7100000000000000000000000000000000000000000000000000000000600052601160045260246000fd5b6000610cdc82610739565b91506000821415610cf057610cef610ca2565b5b600182039050919050565b6000610d0682610739565b91507fffffffffffffffffffffffffffffffffffffffffffffffffffffffffffffffff821415610d3957610d38610ca2565b5b600182019050919050565b7f4e487b7100000000000000000000000000000000000000000000000000000000600052603260045260246000fd5b7f4e487b7100000000000000000000000000000000000000000000000000000000600052602260045260246000fd5b60006002820490506001821680610dba57607f821691505b60208210811415610dce57610dcd610d73565b5b5091905056fea264697066735822122040fdc8f548241ea6e22a474c2663e33befca368facc5e8ce3b621035333e37cd64736f6c634300080b0033608060405234801561001057600080fd5b50336000806101000a81548173ffffffffffffffffffffffffffffffffffffffff021916908373ffffffffffffffffffffffffffffffffffffffff1602179055506000600181905550610504806100686000396000f3fe608060405234801561001057600080fd5b50600436106100365760003560e01c806314f041981461003b5780632aa1e20f14610059575b600080fd5b610043610075565b6040516100509190610358565b60405180910390f35b610073600480360381019061006e9190610409565b61010a565b005b6060600260003373ffffffffffffffffffffffffffffffffffffffff1673ffffffffffffffffffffffffffffffffffffffff16815260200190815260200160002080548060200260200160405190810160405280929190818152602001828054801561010057602002820191906000526020600020905b8154815260200190600101908083116100ec575b5050505050905090565b60008054906101000a900473ffffffffffffffffffffffffffffffffffffffff1673ffffffffffffffffffffffffffffffffffffffff163373ffffffffffffffffffffffffffffffffffffffff161461016257600080fd5b60006001549050600180546101779190610478565b600181905550600060405180606001604052808381526020018581526020018473ffffffffffffffffffffffffffffffffffffffff1681525090508060036000848152602001908152602001600020600082015181600001556020820151816001015560408201518160020160006101000a81548173ffffffffffffffffffffffffffffffffffffffff021916908373ffffffffffffffffffffffffffffffffffffffff160217905550905050600260008473ffffffffffffffffffffffffffffffffffffffff1673ffffffffffffffffffffffffffffffffffffffff16815260200190815260200160002082908060018154018082558091505060019003906000526020600020016000909190919091505550505050565b600081519050919050565b600082825260208201905092915050565b6000819050602082019050919050565b6000819050919050565b6102cf816102bc565b82525050565b60006102e183836102c6565b60208301905092915050565b6000602082019050919050565b600061030582610290565b61030f818561029b565b935061031a836102ac565b8060005b8381101561034b57815161033288826102d5565b975061033d836102ed565b92505060018101905061031e565b5085935050505092915050565b6000602082019050818103600083015261037281846102fa565b905092915050565b600080fd5b610388816102bc565b811461039357600080fd5b50565b6000813590506103a58161037f565b92915050565b600073ffffffffffffffffffffffffffffffffffffffff82169050919050565b60006103d6826103ab565b9050919050565b6103e6816103cb565b81146103f157600080fd5b50565b600081359050610403816103dd565b92915050565b600080604083850312156104205761041f61037a565b5b600061042e85828601610396565b925050602061043f858286016103f4565b9150509250929050565b7f4e487b7100000000000000000000000000000000000000000000000000000000600052601160045260246000fd5b6000610483826102bc565b915061048e836102bc565b9250827fffffffffffffffffffffffffffffffffffffffffffffffffffffffffffffffff038211156104c3576104c2610449565b5b82820190509291505056fea2646970667358221220e2e7a205e263a8d6bb947b1087c414a0c4c0717d63d42214405a058599d79d3d64736f6c634300080b0033",
  "immutableReferences": {},
  "source": "// SPDX-License-Identifier: MIT\npragma solidity ^0.8.2;\nimport \"./TicketContract.sol\";\n\ncontract EventContract {\n    TicketContract ticketContract;\n    struct Event {\n        uint256 eventID;\n        string eventName;\n        string eventURI;\n        address eventOwner;\n    }\n\n    uint256 eventCounter;\n    Event[] events;\n    mapping(address => uint256[]) ownedEvents;\n    mapping(uint256 => uint256) ticketCount;\n\n    modifier ticketsAvailable(uint256 eventID) {\n        require(ticketCount[eventID] > 0, \"No Tickets Available\");\n        _;\n    }\n\n    constructor() {\n        eventCounter = 0;\n        ticketContract = new TicketContract();\n    }\n\n    function createEvent(\n        string memory uri,\n        string memory name,\n        uint256 tickets\n    ) public payable returns (uint256) {\n        uint256 eventID = eventCounter;\n        eventCounter++;\n        Event memory new_event = Event(eventID, name, uri, msg.sender);\n        events.push(new_event);\n        ticketCount[eventID] = tickets;\n        ownedEvents[msg.sender].push(eventID);\n        return eventID;\n    }\n\n    function buyTickets(uint256 eventID)\n        public\n        payable\n        ticketsAvailable(eventID)\n    {\n        ticketContract.allotTicket(eventID, msg.sender);\n        ticketCount[eventID]--;\n    }\n\n    function getOwnedEvents() public view returns (uint256[] memory) {\n        return ownedEvents[msg.sender];\n    }\n\n    function getTicketContract() public view returns (TicketContract) {\n        return ticketContract;\n    }\n\n    function getEventDetails(uint256 eventID)\n        public\n        view\n        returns (\n            uint256,\n            string memory,\n            string memory,\n            address\n        )\n    {\n        return (\n            events[eventID].eventID,\n            events[eventID].eventName,\n            events[eventID].eventURI,\n            events[eventID].eventOwner\n        );\n    }\n}\n",
  "sourcePath": "/Users/shivsarthaksabhlok/Development/NFT_Tickets/contracts/EventContract.sol",
  "compiler": {
    "name": "solc",
    "version": "0.8.11+commit.d7f03943.Emscripten.clang"
  },
  "schemaVersion": "3.4.4",
  "updatedAt": "2022-01-12T19:26:41.838Z",
  "networkType": "ethereum",
  "devdoc": {
    "kind": "dev",
    "methods": {},
    "version": 1
  },
  "userdoc": {
    "kind": "user",
    "methods": {},
    "version": 1
  }
}