{
  "contractName": "TicketContract",
  "abi": [
    {
      "inputs": [],
      "stateMutability": "nonpayable",
      "type": "constructor"
    },
    {
      "inputs": [
        {
          "internalType": "uint256",
          "name": "eventID",
          "type": "uint256"
        },
        {
          "internalType": "address",
          "name": "to",
          "type": "address"
        }
      ],
      "name": "allotTicket",
      "outputs": [],
      "stateMutability": "nonpayable",
      "type": "function"
    },
    {
      "inputs": [],
      "name": "getOwnedTickets",
      "outputs": [
        {
          "internalType": "uint256[]",
          "name": "",
          "type": "uint256[]"
        }
      ],
      "stateMutability": "view",
      "type": "function"
    }
  ],
  "bytecode": "0x608060405234801561001057600080fd5b50336000806101000a81548173ffffffffffffffffffffffffffffffffffffffff021916908373ffffffffffffffffffffffffffffffffffffffff1602179055506000600181905550610504806100686000396000f3fe608060405234801561001057600080fd5b50600436106100365760003560e01c806314f041981461003b5780632aa1e20f14610059575b600080fd5b610043610075565b6040516100509190610358565b60405180910390f35b610073600480360381019061006e9190610409565b61010a565b005b6060600260003373ffffffffffffffffffffffffffffffffffffffff1673ffffffffffffffffffffffffffffffffffffffff16815260200190815260200160002080548060200260200160405190810160405280929190818152602001828054801561010057602002820191906000526020600020905b8154815260200190600101908083116100ec575b5050505050905090565b60008054906101000a900473ffffffffffffffffffffffffffffffffffffffff1673ffffffffffffffffffffffffffffffffffffffff163373ffffffffffffffffffffffffffffffffffffffff161461016257600080fd5b60006001549050600180546101779190610478565b600181905550600060405180606001604052808381526020018581526020018473ffffffffffffffffffffffffffffffffffffffff1681525090508060036000848152602001908152602001600020600082015181600001556020820151816001015560408201518160020160006101000a81548173ffffffffffffffffffffffffffffffffffffffff021916908373ffffffffffffffffffffffffffffffffffffffff160217905550905050600260008473ffffffffffffffffffffffffffffffffffffffff1673ffffffffffffffffffffffffffffffffffffffff16815260200190815260200160002082908060018154018082558091505060019003906000526020600020016000909190919091505550505050565b600081519050919050565b600082825260208201905092915050565b6000819050602082019050919050565b6000819050919050565b6102cf816102bc565b82525050565b60006102e183836102c6565b60208301905092915050565b6000602082019050919050565b600061030582610290565b61030f818561029b565b935061031a836102ac565b8060005b8381101561034b57815161033288826102d5565b975061033d836102ed565b92505060018101905061031e565b5085935050505092915050565b6000602082019050818103600083015261037281846102fa565b905092915050565b600080fd5b610388816102bc565b811461039357600080fd5b50565b6000813590506103a58161037f565b92915050565b600073ffffffffffffffffffffffffffffffffffffffff82169050919050565b60006103d6826103ab565b9050919050565b6103e6816103cb565b81146103f157600080fd5b50565b600081359050610403816103dd565b92915050565b600080604083850312156104205761041f61037a565b5b600061042e85828601610396565b925050602061043f858286016103f4565b9150509250929050565b7f4e487b7100000000000000000000000000000000000000000000000000000000600052601160045260246000fd5b6000610483826102bc565b915061048e836102bc565b9250827fffffffffffffffffffffffffffffffffffffffffffffffffffffffffffffffff038211156104c3576104c2610449565b5b82820190509291505056fea2646970667358221220e2e7a205e263a8d6bb947b1087c414a0c4c0717d63d42214405a058599d79d3d64736f6c634300080b0033",
  "immutableReferences": {},
  "source": "// SPDX-License-Identifier: MIT\npragma solidity ^0.8.2;\n\ncontract TicketContract {\n    struct Ticket {\n        uint256 ticketID;\n        uint256 eventID;\n        address ticketOwner;\n    }\n\n    address eventContract;\n    uint256 ticketCounter;\n\n    modifier onlyEventContract() {\n        require(msg.sender == eventContract);\n        _;\n    }\n\n    mapping(address => uint256[]) ownedTickets;\n    mapping(uint256 => Ticket) tickets;\n\n    constructor() {\n        eventContract = msg.sender;\n        ticketCounter = 0;\n    }\n\n    function allotTicket(uint256 eventID, address to) public onlyEventContract {\n        uint256 ticketID = ticketCounter;\n        ticketCounter = ticketCounter + 1;\n        Ticket memory new_ticket = Ticket(ticketID, eventID, to);\n        tickets[ticketID] = new_ticket;\n        ownedTickets[to].push(ticketID);\n    }\n\n    function getOwnedTickets() public view returns (uint256[] memory) {\n        return ownedTickets[msg.sender];\n    }\n}\n",
  "sourcePath": "/Users/shivsarthaksabhlok/Development/NFT_Tickets/contracts/TicketContract.sol",
  "compiler": {
    "name": "solc",
    "version": "0.8.11+commit.d7f03943.Emscripten.clang"
  },
  "schemaVersion": "3.4.4",
  "updatedAt": "2022-01-12T11:44:38.504Z",
  "devdoc": {
    "kind": "dev",
    "methods": {},
    "version": 1
  },
  "userdoc": {
    "kind": "user",
    "methods": {},
    "version": 1
  }
}